{
  "_format": "hh-sol-artifact-1",
  "contractName": "MockWorldID",
  "sourceName": "contracts/MockWorldID.sol",
  "abi": [
    {
      "inputs": [
        {
          "internalType": "uint256",
          "name": "root",
          "type": "uint256"
        },
        {
          "internalType": "uint256",
          "name": "groupId",
          "type": "uint256"
        },
        {
          "internalType": "uint256",
          "name": "signalHash",
          "type": "uint256"
        },
        {
          "internalType": "uint256",
          "name": "nullifierHash",
          "type": "uint256"
        },
        {
          "internalType": "uint256",
          "name": "externalNullifierHash",
          "type": "uint256"
        },
        {
          "internalType": "uint256[8]",
          "name": "proof",
          "type": "uint256[8]"
        }
      ],
      "name": "verifyProof",
      "outputs": [],
      "stateMutability": "view",
      "type": "function"
    }
  ],
  "bytecode": "0x6080604052348015600f57600080fd5b5061017a8061001f6000396000f3fe608060405234801561001057600080fd5b506004361061002b5760003560e01c80633bc778e314610030575b600080fd5b61004a600480360381019061004591906100b6565b61004c565b005b505050505050565b600080fd5b6000819050919050565b61006c81610059565b811461007757600080fd5b50565b60008135905061008981610063565b92915050565b600080fd5b6000819050826020600802820111156100b0576100af61008f565b5b92915050565b6000806000806000806101a087890312156100d4576100d3610054565b5b60006100e289828a0161007a565b96505060206100f389828a0161007a565b955050604061010489828a0161007a565b945050606061011589828a0161007a565b935050608061012689828a0161007a565b92505060a061013789828a01610094565b915050929550929550929556fea2646970667358221220556cfd3f0a8b99ed520f95619b83c179c707969be4233137b8e5d8414689e3c364736f6c634300081b0033",
  "linkReferences": {},
  "deployedLinkReferences": {}
}