{"contracts/MockWorldID.sol":{"MockWorldID":{"abi":[{"inputs":[{"internalType":"uint256","name":"root","type":"uint256"},{"internalType":"uint256","name":"groupId","type":"uint256"},{"internalType":"uint256","name":"signalHash","type":"uint256"},{"internalType":"uint256","name":"nullifierHash","type":"uint256"},{"internalType":"uint256","name":"externalNullifierHash","type":"uint256"},{"internalType":"uint256[8]","name":"proof","type":"uint256[8]"}],"name":"verifyProof","outputs":[],"stateMutability":"view","type":"function"}],"evm":{"bytecode":{"linkReferences":{},"object":"6080604052348015600f57600080fd5b5061017a8061001f6000396000f3fe608060405234801561001057600080fd5b506004361061002b5760003560e01c80633bc778e314610030575b600080fd5b61004a600480360381019061004591906100b6565b61004c565b005b505050505050565b600080fd5b6000819050919050565b61006c81610059565b811461007757600080fd5b50565b60008135905061008981610063565b92915050565b600080fd5b6000819050826020600802820111156100b0576100af61008f565b5b92915050565b6000806000806000806101a087890312156100d4576100d3610054565b5b60006100e289828a0161007a565b96505060206100f389828a0161007a565b955050604061010489828a0161007a565b945050606061011589828a0161007a565b935050608061012689828a0161007a565b92505060a061013789828a01610094565b915050929550929550929556fea2646970667358221220556cfd3f0a8b99ed520f95619b83c179c707969be4233137b8e5d8414689e3c364736f6c634300081b0033","opcodes":"PUSH1 0x80 PUSH1 0x40 MSTORE CALLVALUE DUP1 ISZERO PUSH1 0xF JUMPI PUSH1 0x0 DUP1 REVERT JUMPDEST POP PUSH2 0x17A DUP1 PUSH2 0x1F PUSH1 0x0 CODECOPY PUSH1 0x0 RETURN INVALID PUSH1 0x80 PUSH1 0x40 MSTORE CALLVALUE DUP1 ISZERO PUSH2 0x10 JUMPI PUSH1 0x0 DUP1 REVERT JUMPDEST POP PUSH1 0x4 CALLDATASIZE LT PUSH2 0x2B JUMPI PUSH1 0x0 CALLDATALOAD PUSH1 0xE0 SHR DUP1 PUSH4 0x3BC778E3 EQ PUSH2 0x30 JUMPI JUMPDEST PUSH1 0x0 DUP1 REVERT JUMPDEST PUSH2 0x4A PUSH1 0x4 DUP1 CALLDATASIZE SUB DUP2 ADD SWAP1 PUSH2 0x45 SWAP2 SWAP1 PUSH2 0xB6 JUMP JUMPDEST PUSH2 0x4C JUMP JUMPDEST STOP JUMPDEST POP POP POP POP POP POP JUMP JUMPDEST PUSH1 0x0 DUP1 REVERT JUMPDEST PUSH1 0x0 DUP2 SWAP1 POP SWAP2 SWAP1 POP JUMP JUMPDEST PUSH2 0x6C DUP2 PUSH2 0x59 JUMP JUMPDEST DUP2 EQ PUSH2 0x77 JUMPI PUSH1 0x0 DUP1 REVERT JUMPDEST POP JUMP JUMPDEST PUSH1 0x0 DUP2 CALLDATALOAD SWAP1 POP PUSH2 0x89 DUP2 PUSH2 0x63 JUMP JUMPDEST SWAP3 SWAP2 POP POP JUMP JUMPDEST PUSH1 0x0 DUP1 REVERT JUMPDEST PUSH1 0x0 DUP2 SWAP1 POP DUP3 PUSH1 0x20 PUSH1 0x8 MUL DUP3 ADD GT ISZERO PUSH2 0xB0 JUMPI PUSH2 0xAF PUSH2 0x8F JUMP JUMPDEST JUMPDEST SWAP3 SWAP2 POP POP JUMP JUMPDEST PUSH1 0x0 DUP1 PUSH1 0x0 DUP1 PUSH1 0x0 DUP1 PUSH2 0x1A0 DUP8 DUP10 SUB SLT ISZERO PUSH2 0xD4 JUMPI PUSH2 0xD3 PUSH2 0x54 JUMP JUMPDEST JUMPDEST PUSH1 0x0 PUSH2 0xE2 DUP10 DUP3 DUP11 ADD PUSH2 0x7A JUMP JUMPDEST SWAP7 POP POP PUSH1 0x20 PUSH2 0xF3 DUP10 DUP3 DUP11 ADD PUSH2 0x7A JUMP JUMPDEST SWAP6 POP POP PUSH1 0x40 PUSH2 0x104 DUP10 DUP3 DUP11 ADD PUSH2 0x7A JUMP JUMPDEST SWAP5 POP POP PUSH1 0x60 PUSH2 0x115 DUP10 DUP3 DUP11 ADD PUSH2 0x7A JUMP JUMPDEST SWAP4 POP POP PUSH1 0x80 PUSH2 0x126 DUP10 DUP3 DUP11 ADD PUSH2 0x7A JUMP JUMPDEST SWAP3 POP POP PUSH1 0xA0 PUSH2 0x137 DUP10 DUP3 DUP11 ADD PUSH2 0x94 JUMP JUMPDEST SWAP2 POP POP SWAP3 SWAP6 POP SWAP3 SWAP6 POP SWAP3 SWAP6 JUMP INVALID LOG2 PUSH5 0x6970667358 0x22 SLT KECCAK256 SSTORE PUSH13 0xFD3F0A8B99ED520F95619B83C1 PUSH26 0xC707969BE4233137B8E5D8414689E3C364736F6C634300081B00 CALLER "},"methodIdentifiers":{"verifyProof(uint256,uint256,uint256,uint256,uint256,uint256[8])":"3bc778e3"}}}}}