{
  "_format": "hh-sol-artifact-1",
  "contractName": "ORO",
  "sourceName": "contracts/ORO.sol",
  "abi": [
    {
      "inputs": [
        {
          "internalType": "address",
          "name": "_owner",
          "type": "address"
        },
        {
          "internalType": "address",
          "name": "_backendSigner",
          "type": "address"
        },
        {
          "internalType": "contract IWorldID",
          "name": "_worldId",
          "type": "address"
        },
        {
          "internalType": "string",
          "name": "_appId",
          "type": "string"
        },
        {
          "internalType": "string",
          "name": "_actionId",
          "type": "string"
        },
        {
          "internalType": "uint256",
          "name": "_amountPerMint",
          "type": "uint256"
        },
        {
          "internalType": "uint40",
          "name": "_waitBetweenMints",
          "type": "uint40"
        }
      ],
      "stateMutability": "nonpayable",
      "type": "constructor"
    },
    {
      "inputs": [],
      "name": "ECDSAInvalidSignature",
      "type": "error"
    },
    {
      "inputs": [
        {
          "internalType": "uint256",
          "name": "length",
          "type": "uint256"
        }
      ],
      "name": "ECDSAInvalidSignatureLength",
      "type": "error"
    },
    {
      "inputs": [
        {
          "internalType": "bytes32",
          "name": "s",
          "type": "bytes32"
        }
      ],
      "name": "ECDSAInvalidSignatureS",
      "type": "error"
    },
    {
      "inputs": [
        {
          "internalType": "address",
          "name": "spender",
          "type": "address"
        },
        {
          "internalType": "uint256",
          "name": "allowance",
          "type": "uint256"
        },
        {
          "internalType": "uint256",
          "name": "needed",
          "type": "uint256"
        }
      ],
      "name": "ERC20InsufficientAllowance",
      "type": "error"
    },
    {
      "inputs": [
        {
          "internalType": "address",
          "name": "sender",
          "type": "address"
        },
        {
          "internalType": "uint256",
          "name": "balance",
          "type": "uint256"
        },
        {
          "internalType": "uint256",
          "name": "needed",
          "type": "uint256"
        }
      ],
      "name": "ERC20InsufficientBalance",
      "type": "error"
    },
    {
      "inputs": [
        {
          "internalType": "address",
          "name": "approver",
          "type": "address"
        }
      ],
      "name": "ERC20InvalidApprover",
      "type": "error"
    },
    {
      "inputs": [
        {
          "internalType": "address",
          "name": "receiver",
          "type": "address"
        }
      ],
      "name": "ERC20InvalidReceiver",
      "type": "error"
    },
    {
      "inputs": [
        {
          "internalType": "address",
          "name": "sender",
          "type": "address"
        }
      ],
      "name": "ERC20InvalidSender",
      "type": "error"
    },
    {
      "inputs": [
        {
          "internalType": "address",
          "name": "spender",
          "type": "address"
        }
      ],
      "name": "ERC20InvalidSpender",
      "type": "error"
    },
    {
      "inputs": [],
      "name": "ORO__InvalidSignature",
      "type": "error"
    },
    {
      "inputs": [
        {
          "internalType": "uint256",
          "name": "lastMintedAt",
          "type": "uint256"
        },
        {
          "internalType": "uint256",
          "name": "requiredWaitTime",
          "type": "uint256"
        }
      ],
      "name": "ORO__NotEnoughTimeHasPassed",
      "type": "error"
    },
    {
      "inputs": [
        {
          "internalType": "address",
          "name": "owner",
          "type": "address"
        }
      ],
      "name": "OwnableInvalidOwner",
      "type": "error"
    },
    {
      "inputs": [
        {
          "internalType": "address",
          "name": "account",
          "type": "address"
        }
      ],
      "name": "OwnableUnauthorizedAccount",
      "type": "error"
    },
    {
      "anonymous": false,
      "inputs": [
        {
          "indexed": false,
          "internalType": "uint256",
          "name": "oldAmount",
          "type": "uint256"
        },
        {
          "indexed": false,
          "internalType": "uint256",
          "name": "newAmount",
          "type": "uint256"
        }
      ],
      "name": "AmountPerMintUpdated",
      "type": "event"
    },
    {
      "anonymous": false,
      "inputs": [
        {
          "indexed": true,
          "internalType": "address",
          "name": "owner",
          "type": "address"
        },
        {
          "indexed": true,
          "internalType": "address",
          "name": "spender",
          "type": "address"
        },
        {
          "indexed": false,
          "internalType": "uint256",
          "name": "value",
          "type": "uint256"
        }
      ],
      "name": "Approval",
      "type": "event"
    },
    {
      "anonymous": false,
      "inputs": [
        {
          "indexed": false,
          "internalType": "address",
          "name": "oldSigner",
          "type": "address"
        },
        {
          "indexed": false,
          "internalType": "address",
          "name": "newSigner",
          "type": "address"
        }
      ],
      "name": "BackendSignerUpdated",
      "type": "event"
    },
    {
      "anonymous": false,
      "inputs": [
        {
          "indexed": true,
          "internalType": "address",
          "name": "to",
          "type": "address"
        },
        {
          "indexed": false,
          "internalType": "uint256",
          "name": "amount",
          "type": "uint256"
        }
      ],
      "name": "Minted",
      "type": "event"
    },
    {
      "anonymous": false,
      "inputs": [
        {
          "indexed": true,
          "internalType": "address",
          "name": "previousOwner",
          "type": "address"
        },
        {
          "indexed": true,
          "internalType": "address",
          "name": "newOwner",
          "type": "address"
        }
      ],
      "name": "OwnershipTransferred",
      "type": "event"
    },
    {
      "anonymous": false,
      "inputs": [
        {
          "indexed": true,
          "internalType": "address",
          "name": "from",
          "type": "address"
        },
        {
          "indexed": true,
          "internalType": "address",
          "name": "to",
          "type": "address"
        },
        {
          "indexed": false,
          "internalType": "uint256",
          "name": "value",
          "type": "uint256"
        }
      ],
      "name": "Transfer",
      "type": "event"
    },
    {
      "anonymous": false,
      "inputs": [
        {
          "indexed": false,
          "internalType": "uint40",
          "name": "oldWait",
          "type": "uint40"
        },
        {
          "indexed": false,
          "internalType": "uint40",
          "name": "newWait",
          "type": "uint40"
        }
      ],
      "name": "WaitBetweenMintsUpdated",
      "type": "event"
    },
    {
      "inputs": [
        {
          "internalType": "address",
          "name": "owner",
          "type": "address"
        },
        {
          "internalType": "address",
          "name": "spender",
          "type": "address"
        }
      ],
      "name": "allowance",
      "outputs": [
        {
          "internalType": "uint256",
          "name": "",
          "type": "uint256"
        }
      ],
      "stateMutability": "view",
      "type": "function"
    },
    {
      "inputs": [],
      "name": "amountPerMint",
      "outputs": [
        {
          "internalType": "uint256",
          "name": "",
          "type": "uint256"
        }
      ],
      "stateMutability": "view",
      "type": "function"
    },
    {
      "inputs": [
        {
          "internalType": "address",
          "name": "spender",
          "type": "address"
        },
        {
          "internalType": "uint256",
          "name": "value",
          "type": "uint256"
        }
      ],
      "name": "approve",
      "outputs": [
        {
          "internalType": "bool",
          "name": "",
          "type": "bool"
        }
      ],
      "stateMutability": "nonpayable",
      "type": "function"
    },
    {
      "inputs": [],
      "name": "backendSigner",
      "outputs": [
        {
          "internalType": "address",
          "name": "",
          "type": "address"
        }
      ],
      "stateMutability": "view",
      "type": "function"
    },
    {
      "inputs": [
        {
          "internalType": "address",
          "name": "account",
          "type": "address"
        }
      ],
      "name": "balanceOf",
      "outputs": [
        {
          "internalType": "uint256",
          "name": "",
          "type": "uint256"
        }
      ],
      "stateMutability": "view",
      "type": "function"
    },
    {
      "inputs": [],
      "name": "decimals",
      "outputs": [
        {
          "internalType": "uint8",
          "name": "",
          "type": "uint8"
        }
      ],
      "stateMutability": "view",
      "type": "function"
    },
    {
      "inputs": [
        {
          "internalType": "uint256",
          "name": "nullifierHash",
          "type": "uint256"
        },
        {
          "internalType": "bytes",
          "name": "signature",
          "type": "bytes"
        }
      ],
      "name": "mint",
      "outputs": [
        {
          "internalType": "uint256",
          "name": "amount",
          "type": "uint256"
        }
      ],
      "stateMutability": "nonpayable",
      "type": "function"
    },
    {
      "inputs": [],
      "name": "name",
      "outputs": [
        {
          "internalType": "string",
          "name": "",
          "type": "string"
        }
      ],
      "stateMutability": "view",
      "type": "function"
    },
    {
      "inputs": [
        {
          "internalType": "uint256",
          "name": "nullifierHash",
          "type": "uint256"
        }
      ],
      "name": "nullifierHashMintData",
      "outputs": [
        {
          "internalType": "uint40",
          "name": "lastMintedAt",
          "type": "uint40"
        },
        {
          "internalType": "uint32",
          "name": "numOfMints",
          "type": "uint32"
        }
      ],
      "stateMutability": "view",
      "type": "function"
    },
    {
      "inputs": [],
      "name": "owner",
      "outputs": [
        {
          "internalType": "address",
          "name": "",
          "type": "address"
        }
      ],
      "stateMutability": "view",
      "type": "function"
    },
    {
      "inputs": [],
      "name": "renounceOwnership",
      "outputs": [],
      "stateMutability": "nonpayable",
      "type": "function"
    },
    {
      "inputs": [
        {
          "internalType": "uint256",
          "name": "_amountPerMint",
          "type": "uint256"
        }
      ],
      "name": "setAmountPerMint",
      "outputs": [],
      "stateMutability": "nonpayable",
      "type": "function"
    },
    {
      "inputs": [
        {
          "internalType": "address",
          "name": "_newSigner",
          "type": "address"
        }
      ],
      "name": "setBackendSigner",
      "outputs": [],
      "stateMutability": "nonpayable",
      "type": "function"
    },
    {
      "inputs": [
        {
          "internalType": "uint40",
          "name": "_waitBetweenMints",
          "type": "uint40"
        }
      ],
      "name": "setWaitBetweenMints",
      "outputs": [],
      "stateMutability": "nonpayable",
      "type": "function"
    },
    {
      "inputs": [],
      "name": "symbol",
      "outputs": [
        {
          "internalType": "string",
          "name": "",
          "type": "string"
        }
      ],
      "stateMutability": "view",
      "type": "function"
    },
    {
      "inputs": [],
      "name": "totalSupply",
      "outputs": [
        {
          "internalType": "uint256",
          "name": "",
          "type": "uint256"
        }
      ],
      "stateMutability": "view",
      "type": "function"
    },
    {
      "inputs": [
        {
          "internalType": "address",
          "name": "to",
          "type": "address"
        },
        {
          "internalType": "uint256",
          "name": "value",
          "type": "uint256"
        }
      ],
      "name": "transfer",
      "outputs": [
        {
          "internalType": "bool",
          "name": "",
          "type": "bool"
        }
      ],
      "stateMutability": "nonpayable",
      "type": "function"
    },
    {
      "inputs": [
        {
          "internalType": "address",
          "name": "from",
          "type": "address"
        },
        {
          "internalType": "address",
          "name": "to",
          "type": "address"
        },
        {
          "internalType": "uint256",
          "name": "value",
          "type": "uint256"
        }
      ],
      "name": "transferFrom",
      "outputs": [
        {
          "internalType": "bool",
          "name": "",
          "type": "bool"
        }
      ],
      "stateMutability": "nonpayable",
      "type": "function"
    },
    {
      "inputs": [
        {
          "internalType": "address",
          "name": "newOwner",
          "type": "address"
        }
      ],
      "name": "transferOwnership",
      "outputs": [],
      "stateMutability": "nonpayable",
      "type": "function"
    },
    {
      "inputs": [],
      "name": "waitBetweenMints",
      "outputs": [
        {
          "internalType": "uint40",
          "name": "",
          "type": "uint40"
        }
      ],
      "stateMutability": "view",
      "type": "function"
    }
  ],
  "bytecode": "0x60c060405234801561001057600080fd5b506040516127d23803806127d2833981810160405281019061003291906105d3565b866040518060400160405280600381526020017f4f524f00000000000000000000000000000000000000000000000000000000008152506040518060400160405280600381526020017f4f524f000000000000000000000000000000000000000000000000000000000081525081600390816100ae91906108c4565b5080600490816100be91906108c4565b505050600073ffffffffffffffffffffffffffffffffffffffff168173ffffffffffffffffffffffffffffffffffffffff16036101335760006040517f1e4fbdf700000000000000000000000000000000000000000000000000000000815260040161012a91906109a5565b60405180910390fd5b6101428161025260201b60201c565b508473ffffffffffffffffffffffffffffffffffffffff1660808173ffffffffffffffffffffffffffffffffffffffff16815250506101d46101a88560405160200161018e91906109fc565b60405160208183030381529060405261031860201b60201c565b846040516020016101ba929190610a34565b60405160208183030381529060405261031860201b60201c565b60a0818152505085600760056101000a81548173ffffffffffffffffffffffffffffffffffffffff021916908373ffffffffffffffffffffffffffffffffffffffff1602179055508160068190555080600760006101000a81548164ffffffffff021916908364ffffffffff16021790555050505050505050610aba565b6000600560009054906101000a900473ffffffffffffffffffffffffffffffffffffffff16905081600560006101000a81548173ffffffffffffffffffffffffffffffffffffffff021916908373ffffffffffffffffffffffffffffffffffffffff1602179055508173ffffffffffffffffffffffffffffffffffffffff168173ffffffffffffffffffffffffffffffffffffffff167f8be0079c531659141344cd1fd0a4f28419497f9722a3daafe3b4186f6b6457e060405160405180910390a35050565b600060088260405160200161032d9190610aa3565b6040516020818303038152906040528051906020012060001c901c9050919050565b6000604051905090565b600080fd5b600080fd5b600073ffffffffffffffffffffffffffffffffffffffff82169050919050565b600061038e82610363565b9050919050565b61039e81610383565b81146103a957600080fd5b50565b6000815190506103bb81610395565b92915050565b60006103cc82610383565b9050919050565b6103dc816103c1565b81146103e757600080fd5b50565b6000815190506103f9816103d3565b92915050565b600080fd5b600080fd5b6000601f19601f8301169050919050565b7f4e487b7100000000000000000000000000000000000000000000000000000000600052604160045260246000fd5b61045282610409565b810181811067ffffffffffffffff821117156104715761047061041a565b5b80604052505050565b600061048461034f565b90506104908282610449565b919050565b600067ffffffffffffffff8211156104b0576104af61041a565b5b6104b982610409565b9050602081019050919050565b60005b838110156104e45780820151818401526020810190506104c9565b60008484015250505050565b60006105036104fe84610495565b61047a565b90508281526020810184848401111561051f5761051e610404565b5b61052a8482856104c6565b509392505050565b600082601f830112610547576105466103ff565b5b81516105578482602086016104f0565b91505092915050565b6000819050919050565b61057381610560565b811461057e57600080fd5b50565b6000815190506105908161056a565b92915050565b600064ffffffffff82169050919050565b6105b081610596565b81146105bb57600080fd5b50565b6000815190506105cd816105a7565b92915050565b600080600080600080600060e0888a0312156105f2576105f1610359565b5b60006106008a828b016103ac565b97505060206106118a828b016103ac565b96505060406106228a828b016103ea565b955050606088015167ffffffffffffffff8111156106435761064261035e565b5b61064f8a828b01610532565b945050608088015167ffffffffffffffff8111156106705761066f61035e565b5b61067c8a828b01610532565b93505060a061068d8a828b01610581565b92505060c061069e8a828b016105be565b91505092959891949750929550565b600081519050919050565b7f4e487b7100000000000000000000000000000000000000000000000000000000600052602260045260246000fd5b600060028204905060018216806106ff57607f821691505b602082108103610712576107116106b8565b5b50919050565b60008190508160005260206000209050919050565b60006020601f8301049050919050565b600082821b905092915050565b60006008830261077a7fffffffffffffffffffffffffffffffffffffffffffffffffffffffffffffffff8261073d565b610784868361073d565b95508019841693508086168417925050509392505050565b6000819050919050565b60006107c16107bc6107b784610560565b61079c565b610560565b9050919050565b6000819050919050565b6107db836107a6565b6107ef6107e7826107c8565b84845461074a565b825550505050565b600090565b6108046107f7565b61080f8184846107d2565b505050565b5b81811015610833576108286000826107fc565b600181019050610815565b5050565b601f8211156108785761084981610718565b6108528461072d565b81016020851015610861578190505b61087561086d8561072d565b830182610814565b50505b505050565b600082821c905092915050565b600061089b6000198460080261087d565b1980831691505092915050565b60006108b4838361088a565b9150826002028217905092915050565b6108cd826106ad565b67ffffffffffffffff8111156108e6576108e561041a565b5b6108f082546106e7565b6108fb828285610837565b600060209050601f83116001811461092e576000841561091c578287015190505b61092685826108a8565b86555061098e565b601f19841661093c86610718565b60005b828110156109645784890151825560018201915060208501945060208101905061093f565b86831015610981578489015161097d601f89168261088a565b8355505b6001600288020188555050505b505050505050565b61099f81610383565b82525050565b60006020820190506109ba6000830184610996565b92915050565b600081905092915050565b60006109d6826106ad565b6109e081856109c0565b93506109f08185602086016104c6565b80840191505092915050565b6000610a0882846109cb565b915081905092915050565b6000819050919050565b610a2e610a2982610560565b610a13565b82525050565b6000610a408285610a1d565b602082019150610a5082846109cb565b91508190509392505050565b600081519050919050565b600081905092915050565b6000610a7d82610a5c565b610a878185610a67565b9350610a978185602086016104c6565b80840191505092915050565b6000610aaf8284610a72565b915081905092915050565b60805160a051611cf9610ad96000396000505060005050611cf96000f3fe608060405234801561001057600080fd5b506004361061012c5760003560e01c806370a08231116100ad578063a9059cbb11610071578063a9059cbb14610322578063cfe73e4c14610352578063db7fd40814610370578063dd62ed3e146103a0578063f2fde38b146103d05761012c565b806370a082311461027b578063715018a6146102ab5780638da5cb5b146102b557806395d89b41146102d35780639deaf204146102f15761012c565b80632e7243e9116100f45780632e7243e9146101e9578063313ce567146102075780633478d03b1461022557806336f956701461024157806365d65e861461025d5761012c565b806306fdde03146101315780630918bf071461014f578063095ea7b31461016b57806318160ddd1461019b57806323b872dd146101b9575b600080fd5b6101396103ec565b60405161014691906115c2565b60405180910390f35b6101696004803603810190610164919061162b565b61047e565b005b610185600480360381019061018091906116ec565b6104f8565b6040516101929190611747565b60405180910390f35b6101a361051b565b6040516101b09190611771565b60405180910390f35b6101d360048036038101906101ce919061178c565b610525565b6040516101e09190611747565b60405180910390f35b6101f1610554565b6040516101fe91906117ee565b60405180910390f35b61020f61056b565b60405161021c9190611825565b60405180910390f35b61023f600480360381019061023a9190611840565b610574565b005b61025b6004803603810190610256919061186d565b6105c1565b005b610265610668565b60405161027291906118a9565b60405180910390f35b6102956004803603810190610290919061186d565b61068e565b6040516102a29190611771565b60405180910390f35b6102b36106d6565b005b6102bd6106ea565b6040516102ca91906118a9565b60405180910390f35b6102db610714565b6040516102e891906115c2565b60405180910390f35b61030b60048036038101906103069190611840565b6107a6565b6040516103199291906118e3565b60405180910390f35b61033c600480360381019061033791906116ec565b6107eb565b6040516103499190611747565b60405180910390f35b61035a61080e565b6040516103679190611771565b60405180910390f35b61038a60048036038101906103859190611971565b610814565b6040516103979190611771565b60405180910390f35b6103ba60048036038101906103b591906119d1565b610886565b6040516103c79190611771565b60405180910390f35b6103ea60048036038101906103e5919061186d565b61090d565b005b6060600380546103fb90611a40565b80601f016020809104026020016040519081016040528092919081815260200182805461042790611a40565b80156104745780601f1061044957610100808354040283529160200191610474565b820191906000526020600020905b81548152906001019060200180831161045757829003601f168201915b5050505050905090565b610486610993565b7f89f735ba4d465f7fc934b2d75a53b33978e1545f196d22f986f1954bd03d9d5a600760009054906101000a900464ffffffffff16826040516104ca929190611a71565b60405180910390a180600760006101000a81548164ffffffffff021916908364ffffffffff16021790555050565b600080610503610a1a565b9050610510818585610a22565b600191505092915050565b6000600254905090565b600080610530610a1a565b905061053d858285610a34565b610548858585610ac8565b60019150509392505050565b600760009054906101000a900464ffffffffff1681565b60006012905090565b61057c610993565b7fc6e17bdc3218b8e3df0dfee46c03a7a739a77ea8866072f8f7e43c3e63c44344600654826040516105af929190611a9a565b60405180910390a18060068190555050565b6105c9610993565b7f93f9d0472cb0fc12887bf8f1f15cc7a197a5acd122ab23b8dcc25de0191e0d5e600760059054906101000a900473ffffffffffffffffffffffffffffffffffffffff168260405161061c929190611ac3565b60405180910390a180600760056101000a81548173ffffffffffffffffffffffffffffffffffffffff021916908373ffffffffffffffffffffffffffffffffffffffff16021790555050565b600760059054906101000a900473ffffffffffffffffffffffffffffffffffffffff1681565b60008060008373ffffffffffffffffffffffffffffffffffffffff1673ffffffffffffffffffffffffffffffffffffffff168152602001908152602001600020549050919050565b6106de610993565b6106e86000610bbc565b565b6000600560009054906101000a900473ffffffffffffffffffffffffffffffffffffffff16905090565b60606004805461072390611a40565b80601f016020809104026020016040519081016040528092919081815260200182805461074f90611a40565b801561079c5780601f106107715761010080835404028352916020019161079c565b820191906000526020600020905b81548152906001019060200180831161077f57829003601f168201915b5050505050905090565b60086020528060005260406000206000915090508060000160009054906101000a900464ffffffffff16908060000160059054906101000a900463ffffffff16905082565b6000806107f6610a1a565b9050610803818585610ac8565b600191505092915050565b60065481565b600061082233858585610c82565b60065490506108313382610d9e565b3373ffffffffffffffffffffffffffffffffffffffff167f30385c845b448a36257a6a1716e6ad2e1bc2cbe333cde1e69fe849ad6511adfe826040516108779190611771565b60405180910390a29392505050565b6000600160008473ffffffffffffffffffffffffffffffffffffffff1673ffffffffffffffffffffffffffffffffffffffff16815260200190815260200160002060008373ffffffffffffffffffffffffffffffffffffffff1673ffffffffffffffffffffffffffffffffffffffff16815260200190815260200160002054905092915050565b610915610993565b600073ffffffffffffffffffffffffffffffffffffffff168173ffffffffffffffffffffffffffffffffffffffff16036109875760006040517f1e4fbdf700000000000000000000000000000000000000000000000000000000815260040161097e91906118a9565b60405180910390fd5b61099081610bbc565b50565b61099b610a1a565b73ffffffffffffffffffffffffffffffffffffffff166109b96106ea565b73ffffffffffffffffffffffffffffffffffffffff1614610a18576109dc610a1a565b6040517f118cdaa7000000000000000000000000000000000000000000000000000000008152600401610a0f91906118a9565b60405180910390fd5b565b600033905090565b610a2f8383836001610e20565b505050565b6000610a408484610886565b90507fffffffffffffffffffffffffffffffffffffffffffffffffffffffffffffffff8114610ac25781811015610ab2578281836040517ffb8f41b2000000000000000000000000000000000000000000000000000000008152600401610aa993929190611aec565b60405180910390fd5b610ac184848484036000610e20565b5b50505050565b600073ffffffffffffffffffffffffffffffffffffffff168373ffffffffffffffffffffffffffffffffffffffff1603610b3a5760006040517f96c6fd1e000000000000000000000000000000000000000000000000000000008152600401610b3191906118a9565b60405180910390fd5b600073ffffffffffffffffffffffffffffffffffffffff168273ffffffffffffffffffffffffffffffffffffffff1603610bac5760006040517fec442f05000000000000000000000000000000000000000000000000000000008152600401610ba391906118a9565b60405180910390fd5b610bb7838383610ff7565b505050565b6000600560009054906101000a900473ffffffffffffffffffffffffffffffffffffffff16905081600560006101000a81548173ffffffffffffffffffffffffffffffffffffffff021916908373ffffffffffffffffffffffffffffffffffffffff1602179055508173ffffffffffffffffffffffffffffffffffffffff168173ffffffffffffffffffffffffffffffffffffffff167f8be0079c531659141344cd1fd0a4f28419497f9722a3daafe3b4186f6b6457e060405160405180910390a35050565b60008484604051602001610c97929190611b8c565b6040516020818303038152906040528051906020012090506000610cba8261121c565b90506000610d0c8286868080601f016020809104026020016040519081016040528093929190818152602001838380828437600081840152601f19601f82011690508083019250505050505050611252565b9050600760059054906101000a900473ffffffffffffffffffffffffffffffffffffffff1673ffffffffffffffffffffffffffffffffffffffff168173ffffffffffffffffffffffffffffffffffffffff1614610d95576040517f9d1ee5e700000000000000000000000000000000000000000000000000000000815260040160405180910390fd5b50505050505050565b600073ffffffffffffffffffffffffffffffffffffffff168273ffffffffffffffffffffffffffffffffffffffff1603610e105760006040517fec442f05000000000000000000000000000000000000000000000000000000008152600401610e0791906118a9565b60405180910390fd5b610e1c60008383610ff7565b5050565b600073ffffffffffffffffffffffffffffffffffffffff168473ffffffffffffffffffffffffffffffffffffffff1603610e925760006040517fe602df05000000000000000000000000000000000000000000000000000000008152600401610e8991906118a9565b60405180910390fd5b600073ffffffffffffffffffffffffffffffffffffffff168373ffffffffffffffffffffffffffffffffffffffff1603610f045760006040517f94280d62000000000000000000000000000000000000000000000000000000008152600401610efb91906118a9565b60405180910390fd5b81600160008673ffffffffffffffffffffffffffffffffffffffff1673ffffffffffffffffffffffffffffffffffffffff16815260200190815260200160002060008573ffffffffffffffffffffffffffffffffffffffff1673ffffffffffffffffffffffffffffffffffffffff168152602001908152602001600020819055508015610ff1578273ffffffffffffffffffffffffffffffffffffffff168473ffffffffffffffffffffffffffffffffffffffff167f8c5be1e5ebec7d5bd14f71427d1e84f3dd0314c0f7b2291e5b200ac8c7c3b92584604051610fe89190611771565b60405180910390a35b50505050565b600073ffffffffffffffffffffffffffffffffffffffff168373ffffffffffffffffffffffffffffffffffffffff160361104957806002600082825461103d9190611be7565b9250508190555061111c565b60008060008573ffffffffffffffffffffffffffffffffffffffff1673ffffffffffffffffffffffffffffffffffffffff168152602001908152602001600020549050818110156110d5578381836040517fe450d38c0000000000000000000000000000000000000000000000000000000081526004016110cc93929190611aec565b60405180910390fd5b8181036000808673ffffffffffffffffffffffffffffffffffffffff1673ffffffffffffffffffffffffffffffffffffffff16815260200190815260200160002081905550505b600073ffffffffffffffffffffffffffffffffffffffff168273ffffffffffffffffffffffffffffffffffffffff160361116557806002600082825403925050819055506111b2565b806000808473ffffffffffffffffffffffffffffffffffffffff1673ffffffffffffffffffffffffffffffffffffffff168152602001908152602001600020600082825401925050819055505b8173ffffffffffffffffffffffffffffffffffffffff168373ffffffffffffffffffffffffffffffffffffffff167fddf252ad1be2c89b69c2b068fc378daa952ba7f163c4a11628f55a4df523b3ef8360405161120f9190611771565b60405180910390a3505050565b60007f19457468657265756d205369676e6564204d6573736167653a0a33320000000060005281601c52603c6000209050919050565b600080600080611262868661127e565b92509250925061127282826112da565b82935050505092915050565b600080600060418451036112c35760008060006020870151925060408701519150606087015160001a90506112b58882858561143e565b9550955095505050506112d3565b60006002855160001b9250925092505b9250925092565b600060038111156112ee576112ed611c1b565b5b82600381111561130157611300611c1b565b5b031561143a576001600381111561131b5761131a611c1b565b5b82600381111561132e5761132d611c1b565b5b03611365576040517ff645eedf00000000000000000000000000000000000000000000000000000000815260040160405180910390fd5b6002600381111561137957611378611c1b565b5b82600381111561138c5761138b611c1b565b5b036113d1578060001c6040517ffce698f70000000000000000000000000000000000000000000000000000000081526004016113c89190611771565b60405180910390fd5b6003808111156113e4576113e3611c1b565b5b8260038111156113f7576113f6611c1b565b5b0361143957806040517fd78bce0c0000000000000000000000000000000000000000000000000000000081526004016114309190611c63565b60405180910390fd5b5b5050565b60008060007f7fffffffffffffffffffffffffffffff5d576e7357a4501ddfe92f46681b20a08460001c111561147e576000600385925092509250611528565b6000600188888888604051600081526020016040526040516114a39493929190611c7e565b6020604051602081039080840390855afa1580156114c5573d6000803e3d6000fd5b505050602060405103519050600073ffffffffffffffffffffffffffffffffffffffff168173ffffffffffffffffffffffffffffffffffffffff160361151957600060016000801b93509350935050611528565b8060008060001b935093509350505b9450945094915050565b600081519050919050565b600082825260208201905092915050565b60005b8381101561156c578082015181840152602081019050611551565b60008484015250505050565b6000601f19601f8301169050919050565b600061159482611532565b61159e818561153d565b93506115ae81856020860161154e565b6115b781611578565b840191505092915050565b600060208201905081810360008301526115dc8184611589565b905092915050565b600080fd5b600080fd5b600064ffffffffff82169050919050565b611608816115ee565b811461161357600080fd5b50565b600081359050611625816115ff565b92915050565b600060208284031215611641576116406115e4565b5b600061164f84828501611616565b91505092915050565b600073ffffffffffffffffffffffffffffffffffffffff82169050919050565b600061168382611658565b9050919050565b61169381611678565b811461169e57600080fd5b50565b6000813590506116b08161168a565b92915050565b6000819050919050565b6116c9816116b6565b81146116d457600080fd5b50565b6000813590506116e6816116c0565b92915050565b60008060408385031215611703576117026115e4565b5b6000611711858286016116a1565b9250506020611722858286016116d7565b9150509250929050565b60008115159050919050565b6117418161172c565b82525050565b600060208201905061175c6000830184611738565b92915050565b61176b816116b6565b82525050565b60006020820190506117866000830184611762565b92915050565b6000806000606084860312156117a5576117a46115e4565b5b60006117b3868287016116a1565b93505060206117c4868287016116a1565b92505060406117d5868287016116d7565b9150509250925092565b6117e8816115ee565b82525050565b600060208201905061180360008301846117df565b92915050565b600060ff82169050919050565b61181f81611809565b82525050565b600060208201905061183a6000830184611816565b92915050565b600060208284031215611856576118556115e4565b5b6000611864848285016116d7565b91505092915050565b600060208284031215611883576118826115e4565b5b6000611891848285016116a1565b91505092915050565b6118a381611678565b82525050565b60006020820190506118be600083018461189a565b92915050565b600063ffffffff82169050919050565b6118dd816118c4565b82525050565b60006040820190506118f860008301856117df565b61190560208301846118d4565b9392505050565b600080fd5b600080fd5b600080fd5b60008083601f8401126119315761193061190c565b5b8235905067ffffffffffffffff81111561194e5761194d611911565b5b60208301915083600182028301111561196a57611969611916565b5b9250929050565b60008060006040848603121561198a576119896115e4565b5b6000611998868287016116d7565b935050602084013567ffffffffffffffff8111156119b9576119b86115e9565b5b6119c58682870161191b565b92509250509250925092565b600080604083850312156119e8576119e76115e4565b5b60006119f6858286016116a1565b9250506020611a07858286016116a1565b9150509250929050565b7f4e487b7100000000000000000000000000000000000000000000000000000000600052602260045260246000fd5b60006002820490506001821680611a5857607f821691505b602082108103611a6b57611a6a611a11565b5b50919050565b6000604082019050611a8660008301856117df565b611a9360208301846117df565b9392505050565b6000604082019050611aaf6000830185611762565b611abc6020830184611762565b9392505050565b6000604082019050611ad8600083018561189a565b611ae5602083018461189a565b9392505050565b6000606082019050611b01600083018661189a565b611b0e6020830185611762565b611b1b6040830184611762565b949350505050565b60008160601b9050919050565b6000611b3b82611b23565b9050919050565b6000611b4d82611b30565b9050919050565b611b65611b6082611678565b611b42565b82525050565b6000819050919050565b611b86611b81826116b6565b611b6b565b82525050565b6000611b988285611b54565b601482019150611ba88284611b75565b6020820191508190509392505050565b7f4e487b7100000000000000000000000000000000000000000000000000000000600052601160045260246000fd5b6000611bf2826116b6565b9150611bfd836116b6565b9250828201905080821115611c1557611c14611bb8565b5b92915050565b7f4e487b7100000000000000000000000000000000000000000000000000000000600052602160045260246000fd5b6000819050919050565b611c5d81611c4a565b82525050565b6000602082019050611c786000830184611c54565b92915050565b6000608082019050611c936000830187611c54565b611ca06020830186611816565b611cad6040830185611c54565b611cba6060830184611c54565b9594505050505056fea264697066735822122093e1aa5e6e17ac9d04cf18774e27aee7dba96d6703c96267edb6c08d0bd0ab5664736f6c634300081b0033",
  "linkReferences": {},
  "deployedLinkReferences": {}
}